{"abi":[{"type":"constructor","inputs":[],"stateMutability":"nonpayable"},{"type":"function","name":"deployer","inputs":[],"outputs":[{"name":"","type":"address","internalType":"address"}],"stateMutability":"view"},{"type":"function","name":"getPolicy","inputs":[{"name":"childId","type":"bytes32","internalType":"bytes32"}],"outputs":[{"name":"","type":"tuple","internalType":"struct HATCHSchedule.PolicyView","components":[{"name":"policyHash","type":"bytes32","internalType":"bytes32"},{"name":"nextDueAt","type":"uint64","internalType":"uint64"},{"name":"paused","type":"bool","internalType":"bool"},{"name":"exists","type":"bool","internalType":"bool"}]}],"stateMutability":"view"},{"type":"function","name":"policies","inputs":[{"name":"","type":"bytes32","internalType":"bytes32"}],"outputs":[{"name":"policyHash","type":"bytes32","internalType":"bytes32"},{"name":"nextDueAt","type":"uint64","internalType":"uint64"},{"name":"paused","type":"bool","internalType":"bool"},{"name":"exists","type":"bool","internalType":"bool"}],"stateMutability":"view"},{"type":"function","name":"upsertPolicy","inputs":[{"name":"childId","type":"bytes32","internalType":"bytes32"},{"name":"policyHash","type":"bytes32","internalType":"bytes32"},{"name":"nextDueAt","type":"uint64","internalType":"uint64"},{"name":"paused","type":"bool","internalType":"bool"}],"outputs":[],"stateMutability":"nonpayable"},{"type":"event","name":"Deployed","inputs":[{"name":"deployer","type":"address","indexed":true,"internalType":"address"},{"name":"chainId","type":"uint256","indexed":false,"internalType":"uint256"}],"anonymous":false},{"type":"event","name":"PolicyUpserted","inputs":[{"name":"childId","type":"bytes32","indexed":true,"internalType":"bytes32"},{"name":"parent","type":"address","indexed":true,"internalType":"address"},{"name":"policyHash","type":"bytes32","indexed":false,"internalType":"bytes32"},{"name":"nextDueAt","type":"uint64","indexed":false,"internalType":"uint64"},{"name":"paused","type":"bool","indexed":false,"internalType":"bool"}],"anonymous":false}],"bytecode":{"object":"0x60a0604052348015600e575f5ffd5b503360808190526040514681527fb03c53b28e78a88e31607a27e1fa48234dce28d5d9d9ec7b295aeb02e674a1e19060200160405180910390a26080516103776100605f395f61013701526103775ff3fe608060405234801561000f575f5ffd5b506004361061004a575f3560e01c8063a3f685f91461004e578063ba0afb3f1461011d578063d5f3948814610132578063ddbfd8ef14610171575b5f5ffd5b6100d361005c3660046102d3565b60408051608080820183525f8083526020808401829052838501829052606093840182905294815280855283902083519182018452805482526001015467ffffffffffffffff81169482019490945260ff600160401b85048116151593820193909352600160481b90930490911615159082015290565b60405161011491908151815260208083015167ffffffffffffffff169082015260408083015115159082015260609182015115159181019190915260800190565b60405180910390f35b61013061012b3660046102ea565b6101e8565b005b6101597f000000000000000000000000000000000000000000000000000000000000000081565b6040516001600160a01b039091168152602001610114565b6101b761017f3660046102d3565b5f602081905290815260409020805460019091015467ffffffffffffffff81169060ff600160401b8204811691600160481b90041684565b6040805194855267ffffffffffffffff90931660208501529015159183019190915215156060820152608001610114565b6040805160808101825284815267ffffffffffffffff80851660208084019182528515158486019081526001606086018181525f8c81529384905292879020955186559251949092018054925191511515600160481b0269ff00000000000000000019921515600160401b0268ffffffffffffffffff199094169590941694909417919091171617905551339085907faf1f4f9cf93545413bce9c662d07e2676ab52fed8f058f986147d162c2d22e87906102c59087908790879092835267ffffffffffffffff9190911660208301521515604082015260600190565b60405180910390a350505050565b5f602082840312156102e3575f5ffd5b5035919050565b5f5f5f5f608085870312156102fd575f5ffd5b8435935060208501359250604085013567ffffffffffffffff81168114610322575f5ffd5b915060608501358015158114610336575f5ffd5b93969295509093505056fea264697066735822122007df181fddfc97c3d07371c867ad9740794f52d05b665b36b29f22b3337548d164736f6c634300081c0033","linkReferences":{}},"methodIdentifiers":{"deployer()":"d5f39488","getPolicy(bytes32)":"a3f685f9","policies(bytes32)":"ddbfd8ef","upsertPolicy(bytes32,bytes32,uint64,bool)":"ba0afb3f"},"id":22}