{"abi":[{"type":"constructor","inputs":[],"stateMutability":"nonpayable"},{"type":"function","name":"deployedAt","inputs":[],"outputs":[{"name":"","type":"uint256","internalType":"uint256"}],"stateMutability":"view"},{"type":"function","name":"deployer","inputs":[],"outputs":[{"name":"","type":"address","internalType":"address"}],"stateMutability":"view"},{"type":"function","name":"emitAllowanceExecuted","inputs":[{"name":"childId","type":"bytes32","internalType":"bytes32"},{"name":"amountUsdCents","type":"uint256","internalType":"uint256"},{"name":"ref","type":"bytes32","internalType":"bytes32"}],"outputs":[],"stateMutability":"nonpayable"},{"type":"function","name":"emitChildRegistered","inputs":[{"name":"childId","type":"bytes32","internalType":"bytes32"},{"name":"ageYears","type":"uint8","internalType":"uint8"}],"outputs":[],"stateMutability":"nonpayable"},{"type":"function","name":"emitPolicyPaused","inputs":[{"name":"childId","type":"bytes32","internalType":"bytes32"},{"name":"paused","type":"bool","internalType":"bool"}],"outputs":[],"stateMutability":"nonpayable"},{"type":"event","name":"AllowanceExecuted","inputs":[{"name":"childId","type":"bytes32","indexed":true,"internalType":"bytes32"},{"name":"parent","type":"address","indexed":true,"internalType":"address"},{"name":"amountUsdCents","type":"uint256","indexed":false,"internalType":"uint256"},{"name":"ref","type":"bytes32","indexed":false,"internalType":"bytes32"}],"anonymous":false},{"type":"event","name":"ChildRegistered","inputs":[{"name":"childId","type":"bytes32","indexed":true,"internalType":"bytes32"},{"name":"parent","type":"address","indexed":true,"internalType":"address"},{"name":"ageYears","type":"uint8","indexed":false,"internalType":"uint8"}],"anonymous":false},{"type":"event","name":"Deployed","inputs":[{"name":"deployer","type":"address","indexed":true,"internalType":"address"},{"name":"chainId","type":"uint256","indexed":false,"internalType":"uint256"},{"name":"timestamp","type":"uint256","indexed":false,"internalType":"uint256"}],"anonymous":false},{"type":"event","name":"PolicyPaused","inputs":[{"name":"childId","type":"bytes32","indexed":true,"internalType":"bytes32"},{"name":"parent","type":"address","indexed":true,"internalType":"address"},{"name":"paused","type":"bool","indexed":false,"internalType":"bool"}],"anonymous":false}],"bytecode":{"object":"0x60c0604052348015600e575f5ffd5b503360808190524260a08190526040805146815260208101929092527f540bcec33387745b2ced30977dcfe4a623a245511eb0a133989c27c8bb95b4a9910160405180910390a260805160a05161027d6100745f395f60dd01525f6099015261027d5ff3fe608060405234801561000f575f5ffd5b5060043610610055575f3560e01c806310cf03d114610059578063286ed5771461006e5780633054a0ad14610081578063d5f3948814610094578063eae4c19f146100d8575b5f5ffd5b61006c6100673660046101c4565b61010d565b005b61006c61007c3660046101ed565b61014f565b61006c61008f36600461021f565b61018d565b6100bb7f000000000000000000000000000000000000000000000000000000000000000081565b6040516001600160a01b0390911681526020015b60405180910390f35b6100ff7f000000000000000000000000000000000000000000000000000000000000000081565b6040519081526020016100cf565b6040805183815260208101839052339185917f75dbdc274f088c4136584417f63cf503106759500f5c61a516bf5fe9625d40c3910160405180910390a3505050565b6040518115158152339083907f4ef63645ccbe4512a1ea16553559c185b033810af8ac02e302565e27b50be7fd906020015b60405180910390a35050565b60405160ff82168152339083907f111f14aab3f1b7a64344cf661210c67a3567646447243a73b837990be386217c90602001610181565b5f5f5f606084860312156101d6575f5ffd5b505081359360208301359350604090920135919050565b5f5f604083850312156101fe575f5ffd5b8235915060208301358015158114610214575f5ffd5b809150509250929050565b5f5f60408385031215610230575f5ffd5b82359150602083013560ff81168114610214575f5ffdfea2646970667358221220c72bc0f855b082176e68e80f33e5d179bf66e7aa7b24f210a842cd119513878c64736f6c634300081c0033","linkReferences":{}},"methodIdentifiers":{"deployedAt()":"eae4c19f","deployer()":"d5f39488","emitAllowanceExecuted(bytes32,uint256,bytes32)":"10cf03d1","emitChildRegistered(bytes32,uint8)":"3054a0ad","emitPolicyPaused(bytes32,bool)":"286ed577"},"id":21}